:020000040800F2
:1000000000000220E1810008ED7D0008EF7D00087E
:10001000F17D0008F37D0008F57D00080000000078
:10002000000000000000000000000000F77D000854
:10003000F97D000800000000FB7D0008FD7D000840
:1000400031820008318200083182000831820008C4
:1000500031820008318200083182000831820008B4
:10006000318200083182000831820008057E0008D4
:10007000157E0008257E00083182000831820008C4
:100080003182000831820008318200083182000884
:100090003182000831820008318200083182000874
:1000A0003182000831820008318200083182000864
:1000B0003182000831820008318200083182000854
:1000C0003182000831820008318200083182000844
:1000D000318200083182000831820008357E000834
:1000E00031820008318200080000000031820008DF
:1000F0003182000831820008318200083182000814
:100100003182000831820008318200083182000803
:100110003182000831820008457E000831820008E3
:1001200031820008318200083182000831820008E3
:1001300031820008318200083182000831820008D3
:1001400000000000000000000000000000000000AF
:1001500031820008318200083182000831820008B3
:1001600031820008318200083182000831820008A3
:10017000318200083182000831820008000000004E
:100180003182000831820008318200083182000883
:100190003182000831820008318200083182000873
:1001A0003182000831820008318200083182000863
:1001B0003182000831820008318200083182000853
:1001C0003182000831820008318200083182000843
:1001D0003182000831820008318200083182000833
:1001E0003182000831820008318200083182000823
:1001F0003182000831820008318200083182000813
:100200003182000831820008318200083182000802
:1002100031820008318200083182000831820008F2
:10022000318200083182000831820008000000009D
:10023000318200083182000800000000557E00086D
:1002400031820008318200083182000831820008C2
:1002500031820008318200083182000831820008B2
:1002600031820008318200083182000831820008A2
:10027000318200083182000831820008000000004D
:10028000318200083182000831820008000000003D
:080290000000000031820008AB
:1002A00010B5054C237833B9044B13B10448AFF3B0
:1002B00000800123237010BDA00200200000000078
:1002C000F4A1000808B5034B1BB103490348AFF381
:1002D000008008BD00000000A4020020F4A1000876
:1002E00053B94AB9002908BF00281CBF4FF0FF319D
:1002F0004FF0FF3000F072B9ADF1080C6DE904CE9B
:1003000000F006F8DDF804E0DDE9022304B07047F0
:100310002DE9F047089E04468846002B4BD18A42BF
:10032000154667D9B2FA82F24AB1C2F1200701FA42
:1003300002F320FA07F7954047EA030894404FEA92
:10034000154E230CB8FBFEF71FFA85FC0EFB178831
:1003500043EA084307FB0CF1994209D9EB1807F16E
:10036000FF3080F01B81994240F21881023F2B44FC
:100370005B1AA4B2B3FBFEF00EFB103344EA034455
:1003800000FB0CFCA44509D92C1900F1FF3380F0C7
:100390000781A44540F2048102382C4440EA07401A
:1003A000A4EB0C0400271EB1D4400023C6E900438F
:1003B0003946BDE8F0878B4209D9002E00F0EB806A
:1003C0000027C6E9000138463946BDE8F087B3FA90
:1003D00083F7002F47D18B4202D3824200F2FA808A
:1003E000841A61EB030301209846002EE0D0C6E991
:1003F0000048DDE702B9FFDEB2FA82F2002A40F0DF
:100400008F80491B4FEA154E1FFA85F80127B1FB73
:10041000FEFC230C0EFB1C1143EA014308FB0CF10C
:10042000994207D9EB180CF1FF3002D2994200F241
:10043000CD808446591AA3B2B1FBFEF00EFB101416
:1004400043EA044408FB00F8A04507D92C1900F141
:10045000FF3302D2A04500F2B6801846A4EB080490
:1004600040EA0C409FE7C7F1200CBB4022FA0CFE8B
:100470004EEA030E01FA07F420FA0CF521FA0CF308
:100480004FEA1E482543B3FBF8F92C0C08FB19333F
:100490001FFA8EFA44EA034309FB0AF49C4202FA6B
:1004A00007F200FA07F10BD91EEB030309F1FF3045
:1004B00080F087809C4240F28480A9F10209734455
:1004C0001B1BADB2B3FBF8F008FB103345EA034445
:1004D00000FB0AFAA24508D91EEB040400F1FF3321
:1004E0006BD2A24569D90238744440EA0940A0FBA6
:1004F0000289A4EB0A044C45C2464B4654D351D062
:10050000002E69D0B1EB0A0564EB030404FA0CFC7D
:10051000FD40FC404CEA0505C6E90054002747E7CA
:10052000C2F1200320FA03F7954001FA02F021FA04
:1005300003F34FEA154E3843010CB3FBFEF71FFAE5
:1005400085F80EFB173341EA034107FB08F38B42A2
:1005500004FA02F407D9691807F1FF3C2FD28B4245
:100560002DD9023F2944CB1A81B2B3FBFEF00EFB1A
:10057000103341EA034100FB08F38B4207D96918A5
:1005800000F1FF3C17D28B4215D902382944C91A11
:1005900040EA07473BE73746304609E70746E7E6C4
:1005A0001846FBE64145ABD2B8EB020A69EB0E02F6
:1005B00001381346A4E76046E9E7184695E7674621
:1005C000D1E781467CE702382C4447E7ACF1020CC6
:1005D0002B442FE7384608E73746E9E6704700BF67
:1005E000034613F8012B002AFBD1181A0138704773
:1005F00001F0FF01102A2BDB10F0070F08D010F8D4
:10060000013B013A8B422DD010F0070F42B3F6D1D7
:10061000F0B441EA012141EA014122F007047FF0F0
:1006200000070023F0E80256083C85EA010586EA47
:10063000010685FA47F5A3FA87F586FA47F6A5FA83
:1006400087F68EB9EED1F0BC01F0FF0102F007028F
:1006500032B110F8013B013A83EA010313B1F8D13A
:100660000020704701387047002D06BF354603381B
:10067000073815F0010F07D1013015F4807F02BF54
:10068000013015F4C03F0130F0BC0138704700BFA5
:10069000104B1B780BB90120704710B504464FF47E
:1006A0007A70B0FBF3F30C4A1068B0FBF3F001F082
:1006B00065F868B90F2C01D901200AE00022214613
:1006C0004FF0FF3001F01AF8024B5C60002000E0B0
:1006D000012010BD000000200800002010B50320FC
:1006E00000F0FAFF03F082F80F498B69C3F303238C
:1006F0000E4AD35C03F01F03D8400D4B18608B6982
:1007000003F00F03D35C03F01F03D840094B1860BC
:100710000020FFF7BDFF10B10124204610BD0446A4
:1007200007F052FBF9E700BF0044025828A2000876
:10073000080000200C000020034B1B78034A1168BE
:100740000B441360704700BF00000020BC02002073
:10075000014B1868704700BFBC02002038B5044642
:10076000FFF7F6FF0546B4F1FF3F02D0044B1B78BC
:100770001C44FFF7EDFF401BA042FAD338BD00BF79
:1007800000000020014B1868000C70470010005C4E
:10079000034A536823F4600318435060704700BF56
:1007A00000040058704708B5806BFFF7FBFF08BDD9
:1007B00070477047F8B5044603681D685E68A6492F
:1007C000A64A934218BF8B4240D1A54B9F6807F0C1
:1007D0001F0715F0020F10D016F0020F0DD0636D39
:1007E00013F0100F03D1636D43F40063636520467B
:1007F00000F070FF236802221A6015F0040F02D087
:1008000016F0040F05D115F0080F4FD016F0080FA1
:100810004CD0636D13F0100F03D1636D43F400737C
:1008200063652368DA6812F4406F39D18B4A9342CA
:100830000ED01A4693420ED0052F14BF002101217D
:100840004FB141B9092F06D0D26805E0854BBDE70D
:10085000A2F58072EEE7DA6812F4005F20D11A6820
:1008600012F0080F1CD09A6812F0040F10D15A68C9
:1008700022F00C025A60636D23F480736365636D2C
:1008800013F4805F0CD1636D43F00103636507E0EF
:10089000636D43F010036365A36D43F00103A3652B
:1008A000204607F08EFA23680C221A6015F0200FFC
:1008B00002D016F0200F05D115F0400F63D016F0CE
:1008C000400F60D0636D13F0100F03D1636D43F4DC
:1008D000005363652368DA6C12F4C07F19D10121DB
:1008E000DA6812F4406F16D101205C4A934214D0AA
:1008F0001A46934214D0062F14BF4FF0000C4FF04D
:10090000010C6FB1BCF1000F0AD1072F08D0D268DB
:1009100007E00021E4E70020E7E7A2F58072E8E7BE
:10092000DA6831B912F0007F27D130B312F4005FDA
:1009300023D1196811F0400F1FD012F4001F1CD1F1
:100940009A6812F0080F10D15A6822F060025A60BB
:10095000636D23F480536365636D13F4807F0CD162
:10096000636D43F00103636507E0636D43F01003BB
:100970006365A36D43F00103A365204600F0A6FE66
:10098000236860221A6015F0800F02D016F0800FE5
:1009900036D115F4807F02D016F4807F3BD115F458
:1009A000007F02D016F4007F41D115F0100F20D047
:1009B00016F0100F1DD0236B6BB1002F45D02368AC
:1009C0002549264A934218BF8B423CD1244B9B6851
:1009D00013F4404F0AD0636D43F480636365A36DE5
:1009E00043F00203A3652046FFF7E3FE23681022CD
:1009F0001A6015F4806F02D016F4806F34D1F8BD00
:100A0000636D43F4803363652046FFF7D1FE2368AE
:100A100080221A60BDE7636D43F4003363652046AE
:100A200000F056FE23684FF480721A60B7E7636DDA
:100A300043F480236365204600F04BFE23684FF4A7
:100A400000721A60B1E7074BC1E72368DB6813F057
:100A5000030FCBD0BFE700BF0020024000210240BF
:100A60000023024000630258636D43F480436365D2
:100A7000A36D43F00803A36523684FF480621A60F6
:100A8000204600F024FEBAE708B5836B5A6D12F0D9
:100A9000500F31D15A6D42F400725A651A681168CC
:100AA00011F0080F14D0D16811F4406F20D1D26832
:100AB00012F4005F1CD15A6D22F480725A655A6D8F
:100AC00012F4805F14D15A6D42F001025A650FE0B2
:100AD000D26812F0030F0BD15A6D22F480725A655E
:100AE0005A6D12F4805F03D15A6D42F001025A65CB
:100AF000184607F066F908BD5A6D12F0100F03D1C1
:100B0000DB6CDB6C9847F6E71846FFF752FEF2E71E
:100B100008B5806B436D43F040034365836D43F03C
:100B200004038365FFF745FE08BD0000F0B482B002
:100B30000022019290F85020012A00F037820346EB
:100B4000012280F850200468A26812F004020AD042
:100B5000426D42F0200242650120002283F85020BD
:100B600002B0F0BC70470868C0F31305002D50D1E7
:100B7000C0F3846001258540E0692843E0611F6877
:100B80004E680D683037300A800000F00C003C5889
:100B900006F01F064FF01F0C0CFA06FC24EA0C04AA
:100BA000C5F38465B5402C433C501868846814F044
:100BB000040F37D00124856815F0080F34D00125C3
:100BC0002C4357D10F688C6800F11405780E800013
:100BD00000F004002E58C7F304574FF0070C0CFA2E
:100BE00007FC26EA0C06BC4034432C50B74800688A
:100BF00000F07040B0F1805F18D01C68E06810F021
:100C0000100F59D14869E468C4F382046400A0401D
:100C100013E090FAA0F0B0FA80F000F01F00012578
:100C20008540A9E70024C6E70025C9E748691C6894
:100C3000E468C4F382046400A0400D69042D46D02A
:100C40001F680E68603757F8254004F0004406F02E
:100C5000F8463043204347F8250018680D694C7E5C
:100C6000012C31D0603050F8254024F0004422435C
:100C700040F825201868826812F0010F40F0928138
:100C80000A68CD68D0F8C040C2F3130624EA06040F
:100C900005F018068E4DF5402A40C2F31302224398
:100CA000C0F8C020C8688B4A904244D00A68002A25
:100CB000C0F2DF80002050E74869E468A40804F02F
:100CC00004046400A040B8E74FF00042CAE7186887
:100CD000026E02F0F8420C68B2EB846F1CD0186808
:100CE000426E02F0F8420C68B2EB846F19D01868BB
:100CF000826E02F0F8420C68B2EB846F16D018686E
:100D0000C26E02F0F8420C68B2EB846FB2D1C26ED0
:100D100022F00042C266ADE7026E22F00042026697
:100D2000DDE7426E22F000424266E0E7826E22F08A
:100D300000428266E3E71D680A68C2F3130696BBA9
:100D4000900E013000F01F0009288CBF0020012008
:100D5000002852D09EBB940E0134A40604F0F8443F
:100D6000B6BB900E013000F01F070120B8400443CD
:100D7000C6BB920E013202F01F0202EB42021205C4
:100D800022438C681435500E800000F004002E5869
:100D9000C2F304520727974026EA070604FA02F234
:100DA00032432A5082E792FAA2F0B0FA80F0013082
:100DB00000F01F0009288CBF00200120C8E792FA2C
:100DC000A2F4B4FA84F40134A40604F0F844C7E7AA
:100DD00092FAA2F0B0FA80F0013000F01F07012073
:100DE000B840C4E792FAA2F2B2FA82F2013202F0FB
:100DF0001F0202EB42021205C2E7CEB9940E013483
:100E0000A40604F0F844E6B9900E013000F01F0784
:100E10000120B8400443F6B9900E013000F01F00E5
:100E200000EB40021E3A120542F000722243A8E78E
:100E300092FAA2F4B4FA84F40134A40604F0F8445B
:100E4000E1E792FAA2F0B0FA80F0013000F01F075B
:100E50000120B840DEE792FAA2F0B0FA80F001304B
:100E600000F01F0000EB40021E3A120542F0007233
:100E7000DCE719681848194CA14218BF81420CBF21
:100E80000120002034D1164DAC6804F0E076002833
:100E900034D01148806810F0010F2BD001200F4F83
:100EA000BF6817F0010F27D0012738430CBF01207E
:100EB0000020002870D00B4882422AD00A48824283
:100EC00048D00A48824256D0002046E60010005C16
:100ED000FFFF0F000000FF470020024000210240FA
:100EE00000230240000084CB000052C70000B8CFAE
:100EF0002F4DC9E70020D2E70027D6E72D488068AC
:100F000010F0010F03D0012080F00100D1E7002094
:100F1000FAE714F4000FD1D1264A914201D0002003
:100F20001BE646F40002A96821F0E0710A43AA60BA
:100F3000214A126892092149A1FB0212920952002A
:100F4000019202E0019A013A0192019A002AF9D134
:100F5000002002E614F0807FB3D1164A914201D0FE
:100F60000020FAE546F08072A96821F0E0710A439A
:100F7000AA600020F1E514F4800F15D10D4A9142CA
:100F800001D00020E9E546F48002A96821F0E07173
:100F90000A43AA600020E0E55A6D42F020025A653B
:100FA0000120DAE50020D8E50020D6E50220D7E5CB
:100FB000006302580060025808000020632D3E05BF
:100FC00038B503689A6812F0010F52D199682A4A1D
:100FD000114209D0436D43F010034365836D43F024
:100FE00001038365012045E004469968234A0A40CD
:100FF00042F001029A60FFF7ABFB054623682049E7
:10100000204A934218BF8B420DD102F500729268BC
:1010100002F01F021B498B4207D0194699420CD09F
:101020005AB1002026E0184AF1E7A1F58071F5E7F2
:10103000FFF78EFB401B02280FD823681A6812F0B6
:10104000010F14D19A6812F0010FF1D199680B4A7F
:101050000A4042F001029A60EAE7636D43F0100330
:101060006365A36D43F00103A365012002E0002046
:1010700000E0002038BD00BF3F000080C0FFFF7FC0
:10108000002002400021024000630258F8B50468C5
:101090003D4E3E4DAC4218BFB4421ED105F5007521
:1010A000AD6805F01F05A46814F0040F67D190F82F
:1010B0005040012C66D0012380F85030052D14BF1C
:1010C00000240124002D08BF1C4644B9092D06D078
:1010D000002380F85030012352E02D4DE0E7164602
:1010E0000F460446FFF76CFF0346002843D1626DAC
:1010F000284B134043F4807363652368234A93426B
:1011000033D01A46934200D01DB9636D23F4801387
:101110006365636D13F4805F2AD0A36D23F006032B
:10112000A365E36C1C4ADA63E36C1C4A1A64E36C43
:101130001B4ADA6423681C221A60002384F85030AA
:101140002268536843F010035360216833463A46DF
:101150004031E06C00F054FE034621688868114A73
:10116000024042F004028A600AE0A2F58072C9E7F8
:101170000023A365D5E7002284F8502000E0022375
:101180001846F8BD0223FBE7002002400021024080
:1011900000630258FEF0FFFF890A0008A707000855
:1011A000110B0008C0FFFF7F38B503689A6812F082
:1011B000020F15D001219A6812F0010F35D00029D5
:1011C00035D19A6802F00D02012A0BD0436D43F02D
:1011D00010034365836D43F001038365012025E01F
:1011E0000021E8E704469968124A0A4042F00202E8
:1011F0009A60036803221A60FFF7AAFA054623687B
:101200009B6813F0010F0ED0FFF7A2FA401B0228D3
:10121000F5D9636D43F010036365A36D43F00103DB
:10122000A365012002E0002000E0002038BD00207E
:10123000FCE700BFC0FFFF7F38B504460368504994
:10124000504A934218BF8B4223D14F4B9B6813F4F3
:10125000403F14BF012300234BB302F0F7FC0546C7
:101260006368B3F5003F1CD0B3F5403F1DD0B3F524
:10127000803F16D0FFF786FA41F20303984256D812
:10128000424B9D424DD92268936843F4807393602A
:1012900038BD3F4B9B6813F4403F14BF012300232C
:1012A000DAE71B0CB5FBF3F5E4E78508E2E74FF45A
:1012B000002003F0B5FD05466368B3F5C01F16D0E6
:1012C0000BD9B3F5101F28D01DD8B3F5E01F22D0DD
:1012D000B3F5001FCED14509CCE7B3F5402F06D0BA
:1012E0000AD8B3F5802F02D0B3F5002FC2D19B0CE2
:1012F0005B00B5FBF3F5BDE7B3F5801FF7D0B3F5A1
:10130000A01FB7D1F3E7B3F5201F08D0B3F5301F06
:10131000B0D1050AAEE70509ACE78509AAE7C5091A
:10132000A8E72268936823F480739360B0E7194BB1
:101330009D420FD9184B2B44184A934210D9184B91
:101340002B44184A934213D92268936843F440739C
:1013500093609DE72268936823F44073936097E756
:101360002268936823F4407343F4807393608FE79B
:101370002268936823F4407343F40073936087E713
:10138000002002400021024000230240002D3101D4
:1013900000630258105E5F00EFA1A0FF0F5E5F00C8
:1013A000DF4341FF1FBCBE0030B583B00023019373
:1013B000002800F01B810446436DE3B123689A685E
:1013C00012F0005F03D09968894A0A409A60236846
:1013D0009A6812F0805F1BD19968864A0A4042F0F1
:1013E00080529A60844B1B689B09844AA2FB0323AA
:1013F0009B09019309E006F085F90023A36584F8B1
:101400005030DBE7019B013B0193019B002BF9D19D
:1014100023689A6812F0805F40F09D80626D42F010
:1014200010026265A26D42F00102A26501259A6870
:1014300012F0040F00F091800121626D12F0100F84
:1014400040F0CC80002940F0C980626D22F48172A6
:1014500042F0020262659A6812F0010F21D16849D8
:10146000684A934218BF8B420CBF012300237AD1F4
:101470008A6812F0010F72D001226249896811F066
:10148000010F6ED001210A430CBF0122002242B19C
:10149000002B73D05C4963688A6822F47C12134382
:1014A0008B60FFF76FF941F20303984202D9A368FA
:1014B000102B65D0627D236B43EA4233A26813434D
:1014C000227F43EA0243227F012A64D0626A22B16A
:1014D00002F47872A16A0A4313432168C8684B4A30
:1014E00002401343CB6023689A6812F0040F57D070
:1014F00001219A6812F0080F54D001220A431BD12F
:10150000217DE26A42EA8131D868414A02400A43B9
:10151000DA6094F83830012B46D02268136923F042
:10152000010313612268136923F07043616B0B435D
:1015300013612046FFF780FEE368012B45D0226847
:10154000136B23F00F031363636D23F0030343F066
:101550000103636547E0002569E700216DE700228C
:101560008BE700218FE72B4A926812F0010F03D01E
:10157000012282F001028AE70022FAE726498AE77F
:10158000617D226B42EA41321343227F43EA0243E8
:1015900043F00C0397E7226A013A43EA424395E796
:1015A0000021A6E70022A9E721680A691B4B134026
:1015B000E06B226C42EA0042606C0243A06C024382
:1015C000134343F001030B61ACE721680B6B23F07D
:1015D0000F03A269013A13430B63B5E7636D43F050
:1015E000100363650125284603B030BD0125FAE7E5
:1015F000C0FFFF5FC0FFFF6F08000020632D3E05A6
:1016000000200240002102400023024003C0F0FFFE
:10161000FCBFFFFF00600258006302581EF800FC88
:10162000F0B583B00024019490F85040012C44D0D0
:1016300016460F460446012380F85030FFF7B4FDEC
:10164000054600282FD1636D1D48184040F0020068
:101650006065206882681B4B134007F4803106F0F8
:1016600080420A43134343F00043836023689B682E
:10167000002B11DA019B01330193019A124B9A421C
:10168000F4D9636D23F0120343F010036365002364
:1016900084F8503001250DE0636D23F0030343F01F
:1016A0000103636503E0636D43F01003636500238A
:1016B00084F85030284603B0F0BD0225FAE700BF99
:1016C000FDEEFFFFC0FFFE3FFF955A557047704784
:1016D00070477047704700000649CB6823F4E06309
:1016E0001B041B0C000200F4E0600343024A1A438F
:1016F000CA60704700ED00E00000FA0530B4154BF9
:10170000DB68C3F30223C3F10704042C28BF0424BD
:101710001D1D062D14D9033B4FF0FF3505FA04F4C7
:1017200021EA0401994005FA03F322EA030319436D
:10173000002807DB0901C9B2074B195430BC7047B8
:101740000023E9E700F00F000901C9B2034B195467
:10175000F4E700BF00ED00E000E400E014ED00E07D
:10176000002807DB00F01F02400901239340024AD2
:1017700042F82030704700BF00E100E00138B0F1CE
:10178000807F0AD2064B5860064AF02182F8231067
:101790000020986007221A6070470120704700BF40
:1017A00010E000E000ED00E0F0B4876D446E856E5F
:1017B0006560C46E14B1046F456F656004683C4E8B
:1017C0003C4DAC4218BFB44252D01835AC424FD059
:1017D0001835AC424CD01835AC4249D01835AC4223
:1017E00046D01835AC4243D01835AC4240D005F550
:1017F0005675AC423CD01835AC4239D01835AC42A5
:1018000036D01835AC4233D01835AC4230D018350C
:10181000AC422DD01835AC422AD01835AC4227D076
:10182000254E264DAC4218BFB44211D0244DAC42D7
:101830000ED01435AC420BD01435AC4208D0143560
:10184000AC4205D01435AC4202D01435AC4223D1A1
:10185000C46D04F01F050124AC407C600468636023
:101860008368402B1FD0036899600368DA6013E037
:10187000C46D04F01F053F24AC40BC6005682C68B3
:1018800024F480242C60046863608368402B05D0B6
:10189000036899600368DA60F0BC704703689A6077
:1018A0000368D960F8E703689A600368D960F3E7D2
:1018B0001000024028000240085402581C540258EC
:1018C0003054025802682849284B9A4218BF8A426D
:1018D0002FD018339A422CD018339A4229D018337B
:1018E0009A4226D018339A4223D018339A4220D0F5
:1018F00018339A421DD003F556739A4219D0183303
:101900009A4216D018339A4213D018339A4210D004
:1019100018339A420DD018339A420AD018339A429B
:1019200007D018339A4204D022F0FF028265806DFE
:10193000704710B4D3B2103B0D49A1FB03131B0930
:1019400003F007010B4C615CC165032B06D80A4B01
:1019500013408365806D5DF8044B7047064B134060
:1019600004338365F6E700BF100002402800024000
:10197000ABAAAAAA10A2000800FCFFFF83699BB9CA
:10198000836A012B0AD01BB1022B01D000207047C3
:10199000C36A13F0807F2ED100207047C36AB3F171
:1019A000C07F2AD000207047B3F5005F06D0836A5D
:1019B000022B2AD9032B16D000207047836A032BF1
:1019C00003D8DFE803F01C041C0A00207047C36A38
:1019D00013F0807F15D100207047C36AB3F1C07F38
:1019E00011D000207047C36A13F0807F01D001201E
:1019F0007047002070470120704701207047012088
:101A00007047012070470120704701207047000097
:101A100003682249224A934218BF8B4228D01432CD
:101A2000934225D01432934222D0143293421FD0D5
:101A3000143293421CD01432934219D01432934280
:101A400016D0DAB2103A1749A1FB02121209164950
:101A50001944A8291FD9154B13449B000366144B46
:101A6000436602F01F02012303FA02F28266704706
:101A7000DBB2083B0F4AA2FB03231B090E4A1A44A0
:101A8000920002660D4A426603F01F03012202FA29
:101A900003F3836670470832DDE700BF085402583D
:101AA0001C540258ABAAAAAAF0FBFDBF008200108A
:101AB00080080240CDCCCCCC00960016805802584D
:101AC00001794A1E072A2CD830B40368154D164CEC
:101AD000A34218BFAB4218D01434A34215D014341B
:101AE000A34212D01434A3420FD01434A3420CD01A
:101AF0001434A34209D01434A34206D00B4B0B4438
:101B00009B00C3660A4B036705E00A4B0B449B002E
:101B1000C366094B0367012303FA02F2426730BC34
:101B200070477047085402581C5402583F820010F6
:101B3000400902403F9600164059025870B50446CD
:101B4000FEF706FE002C00F0448105462368A249FA
:101B5000A24A934218BF8B420CBF0122002250D0F0
:101B600030318B424DD018318B424AD018318B42E4
:101B700047D018318B4244D018318B4241D01831B4
:101B80008B423ED001F556718B423AD018318B42D0
:101B900037D018318B4234D018318B4231D01831C4
:101BA0008B422ED018318B422BD018318B4228D04B
:101BB00018318B4225D08A498A4A934218BF8B42FA
:101BC00000F0BF80884A934200F0BB8014329342F9
:101BD00000F0B7801432934200F0B3801432934285
:101BE00000F0AF801432934200F0AB801432934285
:101BF00000F0A78040236365032384F8353001207B
:101C00004AE0002184F83410022184F835107ABBB0
:101C1000764A93422CD01832934229D018329342FC
:101C200026D01832934223D01832934220D0183253
:101C300093421DD002F55672934219D01832934246
:101C400016D01832934213D01832934210D0183263
:101C500093420DD0183293420AD01832934207D0E3
:101C60001832934204D01A6822F001021A6003E08D
:101C70001A6822F001021A6023681A6812F0010F34
:101C80000BD0FEF765FD401B0528F5D920236365C1
:101C9000032384F83530012070BD1A685448104081
:101CA000A168E2680A4321690A4361690A43A1699C
:101CB0000A43E1690A43216A0A430243616A04292B
:101CC00034D01A602668756925F00705636A1D43DC
:101CD000042B07D1A36A1D43E36A1BB12046FFF71B
:101CE0004DFE40BB75612046FFF7ECFDE36D03F050
:101CF0001F023F23934083602046FFF789FEA368BD
:101D0000802B59D0236E22791A60636EA26E5A60BE
:101D10006368013B072B52D90023E366236763679F
:101D200000206065012384F83530B5E7E16A206B57
:101D300001430A43C5E740236365012084F8350069
:101D4000AAE7002284F83420022284F835201A6899
:101D500028491140A268402A06D0802A01D00022DA
:101D600003E04FF4804200E01022E06842EAD00233
:101D7000206942EAD002606942EAD002A06942EAE0
:101D8000D002E06942EAD002206A42EA10120A4315
:101D90001A602268184B1344184AA2FB03231B093C
:101DA0009B00E3652046FFF78DFDE36D03F01F0206
:101DB0000123934043609FE700236360A2E720462E
:101DC000FFF77EFEE36E00221A60236F626F5A6097
:101DD000A6E7012060E700BF100002402800024093
:101DE000085402581C540258305402584000024013
:101DF0003F8010FE0F00FEFFF8ABFDA7CDCCCCCC92
:101E0000002800F0F48070B5044690F834000128F2
:101E100000F0EF80012084F8340094F83500C0B25F
:101E2000012807D0002384F834304FF40063636541
:101E3000012070BD022084F8350000206065206814
:101E40006D4E6E4DA84218BFB0422FD01835A84233
:101E50002CD01835A84229D01835A84226D01835DC
:101E6000A84223D01835A84220D01835A8421DD04A
:101E700005F55675A84219D01835A84216D0183560
:101E8000A84213D01835A84210D01835A8420DD05A
:101E90001835A8420AD01835A84207D01835A842EC
:101EA00004D0056825F00105056003E0056825F00C
:101EB000010505602046FFF777FC23684E494F4A2D
:101EC000934218BF8B4238D01832934235D0183223
:101ED000934232D0183293422FD0183293422CD0F2
:101EE0001832934229D01832934226D002F5567206
:101EF000934222D0183293421FD0183293421CD002
:101F00001832934219D01832934216D018329342A5
:101F100013D01832934210D0183293420DD01A6861
:101F200022F00E0242F00A021A60236C93B122687A
:101F3000136843F0040313600CE01A6822F01E02D9
:101F400042F016021A60236C23B12268136843F032
:101F500008031360236E1A6812F4803F03D01A68D6
:101F600042F480721A60E36E1BB11A6842F4807208
:101F70001A6023682049214A934218BF8B4230D00F
:101F8000183293422DD0183293422AD018329342FD
:101F900027D01832934224D01832934221D01832DD
:101FA00093421ED002F5567293421AD018329342D1
:101FB00017D01832934214D01832934211D01832ED
:101FC00093420ED0183293420BD01832934208D06D
:101FD0001832934205D01A6842F001021A600020BC
:101FE00027E71A6842F001021A60002021E7012069
:101FF000704702201DE700BF100002402800024089
:10200000002800F0E48008B5024690F83530DBB2D5
:10201000022B03D080234365012008BD03686E486E
:102020006E498B4218BF83420CBF0121002100F092
:102030008E803030834200F08A801830834200F076
:1020400086801830834200F08280183083427ED030
:10205000183083427BD01830834278D000F5567018
:10206000834274D01830834271D0183083426ED0CE
:10207000183083426BD01830834268D018308342C6
:1020800065D01830834262D0183083425FD019681F
:1020900021F00E0119601368A0F595604F498B423D
:1020A00018BF83422AD04E498B4227D018318B4229
:1020B00024D018318B4221D018318B421ED01831D8
:1020C0008B421BD018318B4218D001F556718B42D0
:1020D00014D018318B4211D018318B420ED01831E8
:1020E0008B420BD018318B4208D018318B4205D06F
:1020F00018318B4202D018318B4263D1196821F01C
:1021000001011960116E0B6823F480730B60906DF0
:10211000D36D03F01F0101238B404360536E916E1A
:102120005960D36E33B1196821F480711960136F4F
:10213000516F5960002382F83430012382F8353022
:10214000136D002B45D010469847002065E704200A
:1021500082F8350081BB224A93422DD01832934237
:102160002AD01832934227D01832934224D0183202
:10217000934221D0183293421ED002F556729342F8
:102180001AD01832934217D01832934214D0183212
:10219000934211D0183293420ED0183293420BD092
:1021A0001832934208D01832934205D01A6822F0B0
:1021B00001021A60002030E71A6822F001021A605A
:1021C00000202AE7196821F0010119609AE701202F
:1021D0007047002021E700BF1000024028000240A5
:1021E00040000240F0B583B0044600230193A24BA7
:1021F0001D68A24BA3FB0535AD0A876D3E68D7F875
:1022000000C003689E499F48834218BF8B420CBFA1
:102210000120002061D09C4A93425ED01832934244
:102220005BD01832934258D01832934255D01832AE
:10223000934252D0183293424FD002F556729342D5
:102240004BD01832934248D01832934245D01832BE
:10225000934242D0183293423FD0183293423CD03E
:102260001832934239D01832934236D08749884A7F
:10227000934218BF8B4212D0864A93420FD0143239
:1022800093420CD01432934209D01432934206D0B8
:102290001432934203D01432934240F062821A689F
:1022A000E16D01F01F010420884010EA0C0F00F0DE
:1022B000A88212F0040F00F0A482786012F4004F9C
:1022C00000F05B8212F4803F40F05182A36C002B3F
:1022D00000F047822046984743E2E26D02F01F017A
:1022E00008228A40324241D070BB674A93422BD0C9
:1022F0001832934228D01832934225D01832934294
:1023000022D0183293421FD0183293421CD002F5CB
:102310005672934218D01832934215D01832934215
:1023200012D0183293420FD0183293420CD0183288
:10233000934209D01832934206D01832934203D008
:102340001A68C2F3C00202E01A68C2F380026AB1DE
:102350001A6822F004021A60E36D03F01F020823DA
:102360009340BB60636D43F001036365E26D02F06F
:102370001F0226FA02F313F0010F37D023684048FA
:1023800040498B4218BF83422CD018318B4229D050
:1023900018318B4226D018318B4223D018318B4212
:1023A00020D018318B421DD018318B421AD001F544
:1023B00056718B4216D018318B4213D018318B4294
:1023C00010D018318B420DD018318B420AD0183101
:1023D0008B4207D018318B4204D018318B4201D088
:1023E0001B6803E05B6913F0800F3BD1E36D03F0E2
:1023F0001F03042202FA03F3334251D0226820481B
:1024000020498A4218BF824246D018318A4243D0BE
:1024100018318A4240D018318A423DD018318A4260
:102420003AD018318A4237D018318A4234D001F577
:1024300056718A4230D018318A422DD018318A42E2
:102440002AD018318A4227D018318A4224D0183134
:102450008A4221D018318A421ED018318A421BD0BC
:1024600013681DE0012303FA02F2BA60636D43F0C2
:1024700002036365BAE700BF08000020B5814E1B68
:102480001000024028000240400002400854025858
:102490001C54025830540258126812F0020F3DD1F9
:1024A000E36D03F01F03102202FA03F333425FD0FF
:1024B00022689B489B498A4218BF824234D0183117
:1024C0008A4231D018318A422ED018318A422BD01C
:1024D00018318A4228D018318A4225D018318A42D0
:1024E00022D001F556718A421ED018318A421BD083
:1024F00018318A4218D018318A4215D018318A42D0
:1025000012D018318A420FD018318A420CD01831BB
:102510008A4209D01268C2F3800208E0BB60636D92
:1025200043F004036365BBE71268C2F3C002FAB16B
:10253000BB6023681A6812F4802F0DD01B6813F457
:10254000002F04D1236C9BB12046984710E0A36C68
:1025500073B1204698470BE01A6812F4807F03D1CC
:102560001A6822F008021A60236C0BB120469847C3
:10257000E36D03F01F03202202FA03F3334200F05D
:102580008E802268664867498A4218BF82422ED0F0
:1025900018318A422BD018318A4228D018318A4209
:1025A00025D018318A4222D018318A421FD01831E2
:1025B0008A421CD001F556718A4218D018318A42DD
:1025C00015D018318A4212D018318A420FD01831F2
:1025D0008A420CD018318A4209D018318A4206D07A
:1025E00018318A4203D01268C2F3400202E0126836
:1025F000C2F30012002A52D0BB6094F83530DBB22F
:10260000042B0ED023681A6812F4802F35D01B6873
:1026100013F4002F2CD1636C002B40D02046984738
:102620003DE02268136823F01603136022685369A3
:1026300023F080035361236CB3B12268136823F045
:1026400008031360E36D03F01F023F239340BB6058
:10265000002384F83430012384F83530236D002BB7
:102660007FD0204698477CE0A36C002BE5D1E9E7BA
:10267000E36BA3B12046984711E01A6812F4807FFB
:1026800009D11A6822F010021A60002384F834304D
:10269000012384F83530E36B0BB120469847636D16
:1026A000002B5ED0636D13F0010F56D0042384F825
:1026B000353023681A491B4A934218BF8B4233D0E6
:1026C0001832934230D0183293422DD018329342B0
:1026D0002AD01832934227D01832934224D018328D
:1026E000934221D002F5567293421DD01832934284
:1026F0001AD01832934217D01832934214D018329D
:10270000934211D0183293420ED0183293420BD01C
:102710001832934208D01A6822F001021A6007E0CA
:1027200010000240280002401A6822F001021A60DC
:10273000019B01330193AB4204D823681B6813F05B
:10274000010FF5D1002384F8343023681B6813F09F
:10275000010F08D0032384F83530E36C0BB1204619
:10276000984703B0F0BD012384F83530F5E7236CBA
:10277000002BF6D020469847F3E712F0200F35D112
:1027800023686449644A934218BF8B422AD01832A6
:10279000934227D01832934224D01832934221D04A
:1027A000183293421ED0183293421BD018329342F3
:1027B00018D002F55672934214D01832934211D0B9
:1027C000183293420ED0183293420BD018329342F3
:1027D00008D01832934205D01832934202D01832F2
:1027E000934209D11A6822F008021A60236C002B68
:1027F000B7D020469847B4E71A6822F004021A605E
:10280000F4E70220884010EA0C0F60D012F0020FAB
:102810005DD0786012F4004F0ED012F4803F05D1E5
:10282000636C002B9DD0204698479AE7E36B002B02
:1028300097D02046984794E712F0200F3BD12368A9
:102840003449354A934218BF8B422AD018329342FA
:1028500027D01832934224D01832934221D0183214
:1028600093421ED0183293421BD01832934218D094
:1028700002F55672934214D01832934211D0183296
:1028800093420ED0183293420BD01832934208D0A4
:102890001832934205D01832934202D01832934234
:1028A00010D11A6822F014021A60002384F8343020
:1028B000012384F83530E36B002B3FF452AF204600
:1028C00098474EE71A6822F00A021A60EDE70820DE
:1028D00000FA01F111EA0C0F3FF443AF12F0080FB8
:1028E0003FF43FAF1A6822F00E021A60E36D03F066
:1028F0001F03012202FA03F37B606265002384F860
:10290000343084F83520E36C002B3FF42AAF2046A6
:10291000984726E7100002402800024030B48B6838
:102920000A6813430A7943EAC2630A7B43EAC25343
:102930004A7B43EA82538A7B43EA4253CA7B43EA97
:1029400002530A7C002A40F0B0804FF40022134367
:102950004A7C002A40F0AB804FF4003213438A7C5B
:1029600043EA02434A6913438A6913430A7F43EAED
:1029700002334A7F43EAC2238A7F002A40F09980CB
:102980004FF480621343CA7F43EA422391F8202028
:10299000002A40F090804FF4807213434A6A134338
:1029A00091F8282043EA0213CA6A13430468226894
:1029B00022F07F4222F47B0222F4FE4222F07C02CB
:1029C00013432360CA6B91F838301B0643EA426315
:1029D00091F8302043EA824391F8312043EA4243A0
:1029E00091F83220002A68D14FF4803213434A6BA9
:1029F00013430468626822F07C5222F4EF2222F42E
:102A0000FF6222F007021343636091F840204B6C91
:102A100043EA02220468E5682B4B2B401343E36032
:102A200091F854200B6D43EA420391F84C20002AA0
:102A300045D1802213438A6C43EA02430468226F23
:102A400022F0F2021204120C1343236791F856305D
:102A500091F8552043EA42020468D4F8903023F0FC
:102A600003031343C4F890300268D2F8003D23F00A
:102A700072038C6D2343C2F8003DCB6D91F860204A
:102A8000FAB10022134391F8612043EA021391F84E
:102A9000622043EAC2030168D1F8302D22F07B02A4
:102AA0001343C1F8303D30BC704700224FE700228D
:102AB00054E7002266E700226FE7002296E7002233
:102AC000B8E74022DEE700BFF0FEFFFF70B4026807
:102AD00002F5805214681E4B23400C682343136098
:102AE0000A798B6843EA02330A7B43EAC2320568FB
:102AF00041F204042E59174B334013432B514C7BA6
:102B00000B6A43EA0444026802F588521568124BC6
:102B10002B40234313600B690A7D43EA02134A7F6B
:102B200043EA0232056841F204142E590B4B33403C
:102B300013432B510A7F8B6943EAC272006841F24A
:102B400008114458064B23401343435070BC704750
:102B5000FD87FFFFFE2FFFFF00C0FEFFEFEFC0FF6E
:102B6000FFFFC07F70B5A2B0064601258DF8335037
:102B7000002412948DF841408DF843408DF8285080
:102B80008DF856508DF832508DF84C408DF88450A9
:102B90004FF400530F938DF85C4018948DF88540E6
:102BA0008DF886404FF4C36316938DF830400B9434
:102BB0008DF835508DF836408DF840401D941B94AB
:102BC00014948DF864408DF87A408DF8425020239B
:102BD00020938DF844508DF855404FF040530993A1
:102BE0004FF480430E938DF8314002231F938DF8EC
:102BF00078408DF879408DF854408DF834501A940F
:102C00008DF8705009A9FFF789FE8DF804500295E0
:102C100000948DF81C408DF80D408DF80C404FF459
:102C2000001306938DF8144004938DF81D404FF463
:102C30000673089369463046FFF748FF22B070BD1F
:102C400030B400230DE0C56803EB4302D4002A1919
:102C50000021295151609160D160991D40F82120D7
:102C60000133032BEFD900238362026841F22C1356
:102C70000321D150C168026841F21413D150C268D7
:102C8000036803F589531A6030BC704730B40021E3
:102C900011E0056901EB4103DC002B1900222A51E8
:102CA0005A609A60DA601A615A6101F10A0200EB17
:102CB0008202536001310329EBD90023C36303640B
:102CC0004364C3648364026841F230130321D1502A
:102CD0000169026841F21C13D150036903F5D863FE
:102CE000016841F228128B5030BC704738B5054658
:102CF0000368D3F8004224F4706400F0A7FF114B7E
:102D00000344114A934211D9104B0344104A934291
:102D100012D9104B0344104A934209D90F4B034474
:102D20000F4A93420BD944F4806401E044F40074E8
:102D30002B68C3F8004238BD44F44074F8E744F40B
:102D40008074F5E700D3CEFEBFE1E40040F1E9FD79
:102D50003F787D0100796CFCFF596202001F0AFA7E
:102D60007FF0FA02002800F08C8030B583B0044672
:102D7000436D8BB323236365434BD3F8F42042F0B8
:102D80000202C3F8F420D3F8F43003F002030193F5
:102D9000019B237A1BBB0020FDF7FAFC236803F597
:102DA00080531A6842F001021A60FDF7D1FC054613
:102DB000236803F580531B6813F0010F14D0FDF74F
:102DC000C7FC401BB0F5FA7FF2D90423E365E0238A
:102DD0006365012003B030BD04F044FDCAE74FF441
:102DE0000000FDF7D5FCD9E72046FFF77FFF00F094
:102DF0002DFF264BA3FB00239B0C2268013BC2F84E
:102E0000DC302046FFF7AEFE226802F588521368D8
:102E100023F4E01343F400231360636913F0030FFA
:102E200004D00120E065E0236365D3E7206841F228
:102E300008114558164A2A4042EA430343502046A7
:102E4000FFF7FEFE2046FFF721FF626851791379F4
:102E5000226843EA0123C2F800336268D17893788C
:102E60001B0443EA0163517843EA01231178226885
:102E70000B43C2F804330020E06510236365A365AB
:102E8000A8E70120704700BF0044025883DE1B43BF
:102E90000180FFFFF0B482B000233AE0092400E093
:102EA0000024B4403C4302356F4E46F825406F4C39
:102EB0002568D44304EA05064F6817F4803F01D023
:102EC00042EA0506694D2E606E6804EA06054F6801
:102ED00017F4003F01D042EA0605644E75604FF0DA
:102EE000B0452D6804EA05064F6817F4801F01D02D
:102EF00042EA05064FF0B0452E606D682C404E68E2
:102F000016F4001F01D042EA05044FF0B0425460AD
:102F100001330A6832FA03F400F0A28001249C40D5
:102F20002240F5D04D68122D18BF022D10D1DE08B9
:102F3000083650F826C003F00705AF000F25BD4046
:102F40002CEA050C0D69BD4045EA0C0540F82650F9
:102F500006685F000325BD40ED4305EA060C4E6898
:102F600006F00306BE4046EA0C0606604E6806F10F
:102F7000FF3C112E18BFBCF1010F01D9122E11D147
:102F8000866805EA060CCE68BE4046EA0C068660F6
:102F9000466826EA040C4E68C6F300149C4044EAD6
:102FA0000C044460C46825408C68BC402C43C46059
:102FB0004C6814F0805FABD02D4CD4F8F45045F041
:102FC0000205C4F8F450D4F8F44004F0020401946B
:102FD000019C9D08AE1C244C54F8267003F0030499
:102FE000A6000F24B44027EA0407224CA0423FF475
:102FF00057AF04F58064A04222D004F58064A0425B
:1030000020D004F58064A0421ED004F58064A04264
:103010001CD004F58064A0421AD004F58064A0425C
:1030200018D004F58064A04216D004F58064A04254
:1030300014D004F58064A0423FF430AF0A2430E796
:1030400001242EE702242CE703242AE7042428E79E
:10305000052426E7062424E7072422E7082420E79E
:1030600002B0F0BC704700BF000400588000005858
:10307000004402580000025812B9090481617047E7
:1030800081617047F0B58BB0002800F09180044654
:10309000056890F8BD3323B3032384F8BD33EB6B8D
:1030A00013F4807F01D100232361206804F0B4F978
:1030B000254655F8107B6E460FCD0FC60FCD0FC6B7
:1030C00095E8030086E80300231D0ECB384604F084
:1030D0005DF958B1022384F8BD33012528460BB0B1
:1030E000F0BD80F8BC3305F037F8D5E70021206843
:1030F00004F098F9002315E0D900C81A8200224490
:10310000012082F83D0082F83C30A2F842300020D5
:1031100082F83F0050649064CA1A91002144086507
:103120000133DBB26568AB42E6D3002315E0D8007B
:10313000C11A8A002244002182F8FD1182F8FC3174
:1031400082F8FF11C2F80412C2F80812C21A9000E5
:103150002044C0F810120133DBB29D42E7D8254667
:1031600055F8107B6E460FCD0FC60FCD0FC695E8F4
:10317000030086E80300231D0ECB384604F098F9BF
:10318000054660B9002384F83830012384F8BD3344
:10319000636A012B08D0206804F056FA9EE70223E8
:1031A00084F8BD33012599E7204600F003F8F2E7E3
:1031B000012593E7024603680121C0F8FC130020B3
:1031C00082F8F4039A6942F000629A61596D024AEA
:1031D0000A435A65704700BF03000010124BDB68BA
:1031E00013F0040F07D1104BDB6803F00703834291
:1031F00001D00120704710B50B4AD36823F00703B4
:103200001843D060FDF7A4FA0446074B5B6813F43B
:10321000005F07D1FDF79CFA001BB0F57A7FF4D967
:10322000032000E0002010BD00480258024AD36885
:1032300043F08073D360704700480258002800F0C4
:10324000CB8238B50446036813F0010F25D0A94A94
:10325000136903F03803926A102B15D0182B0FD086
:103260006368B3F5803F3FD0002B53D1A14B1A6860
:1032700022F480321A601A6822F480221A6038E040
:1032800002F00302022AEBD19A4B1B6813F4003FB1
:1032900003D06368002B00F0A182236813F0020FB3
:1032A00000F08E80934A1369926A13F038035AD063
:1032B000182B55D0E368002B00F0C8808D490A68B0
:1032C00022F0190213430B60FDF742FA0546894BC1
:1032D0001B6813F0040F40F0A180FDF739FA401B82
:1032E0000228F4D903207EE2824A136843F4803333
:1032F000136063682BB3FDF72BFA05467D4B1B6803
:1033000013F4003FC9D1FDF723FA401B6428F5D917
:10331000032068E2B3F5A02F09D0764B1A6822F497
:1033200080321A601A6822F480221A60E1E7714B39
:103330001A6842F480221A601A6842F480321A60D5
:10334000D7E7FDF705FA05466A4B1B6813F4003F03
:10335000A3D0FDF7FDF9401B6428F5D9032042E214
:1033600012F0030FA6D1634B1B6813F0040F03D0B8
:10337000E368002B00F034825E4A136823F01903DF
:10338000E1680B431360FDF7E3F90546594B1B68F1
:1033900013F0040F06D1FDF7DBF9401B0228F5D925
:1033A000032020E2FDF7EEF941F2030398422CD806
:1033B000504A536823F47C33216943EA0133536054
:1033C000236813F0100F71D04A4A136903F03803D1
:1033D000926A082B52D0182B4CD0E369002B00F0D6
:1033E000A380444A136843F080031360FDF7B0F9EB
:1033F0000546404B1B6813F4807F7DD1FDF7A8F98B
:10340000401B0228F5D90320EDE13A4A536823F026
:10341000FE43216943EA01635360D1E7FDF7B2F946
:1034200041F20303984208D8324A536823F47C33AC
:10343000216943EA01335360C2E72E4A536823F0FF
:10344000FE43216943EA01635360B9E7294A1368DF
:1034500023F001031360FDF77BF90546254B1B683C
:1034600013F0040FACD0FDF773F9401B0228F5D917
:103470000320B8E102F00302012AAED11D4B1B6804
:1034800013F4807F04D0E369802B01D00120AAE1EE
:10349000FDF778F941F20303984222D8154A5368A0
:1034A00023F0F843216A43EA81635360236813F0F1
:1034B000080F61D06369002B4AD00E4A536F43F066
:1034C00001035367FDF744F905460A4B5B6F13F0A0
:1034D000020F51D1FDF73CF9401B0228F5D903201A
:1034E00081E1044AD36823F07C53216A43EA0163F3
:1034F000D360DBE700440258FDF744F941F20303CF
:10350000984208D8AE4A536823F0F843216A43EA48
:1035100081635360CAE7AA4AD36823F07C53216AC7
:1035200043EA0163D360C1E7A54A136823F080032F
:103530001360FDF70DF90546A14B1B6813F4807F5E
:10354000B4D0FDF705F9401B0228F5D903204AE164
:103550009B4A536F23F001035367FDF7F9F80546C3
:10356000974B5B6F13F0020F06D0FDF7F1F8401B8D
:103570000228F5D9032036E1236813F0200F29D063
:10358000A3699BB18E4A136843F480531360FDF71F
:10359000DFF805468A4B1B6813F4005F1AD1FDF76C
:1035A000D7F8401B0228F5D903201CE1844A136890
:1035B00023F480531360FDF7CBF80546804B1B685E
:1035C00013F4005F06D0FDF7C3F8401B0228F5D9BD
:1035D000032008E1236813F0040F21D1636A002B54
:1035E00000F00081764A126902F03802182A00F0D1
:1035F000FB80022B75D0724A136823F0807313602E
:10360000FDF7A6F804466E4B1B6813F0007F00F030
:10361000E180FDF79DF8001B0228F4D90320E2E0C9
:10362000684A136843F480731360FDF791F8054608
:10363000644B1B6813F4807F06D1FDF789F8401BAB
:103640006428F5D90320CEE0A368012B0AD00BBB78
:103650005B4B1A6F22F001021A671A6F22F0040204
:103660001A6704E0564A136F43F001031367A36817
:1036700033B3FDF76DF80546514B1B6F13F0020F86
:10368000ACD1FDF765F8401B41F288339842F3D97D
:103690000320A8E0052B09D0494B1A6F22F0010244
:1036A0001A671A6F22F004021A67E0E7444B1A6F98
:1036B00042F004021A671A6F42F001021A67D6E755
:1036C000FDF746F805463E4B1B6F13F0020F85D001
:1036D000FDF73EF8401B41F288339842F3D90320AE
:1036E00081E0374A136823F080731360FDF730F8E8
:1036F0000546334B1B6813F0007F06D0FDF728F812
:10370000401B0228F5D903206DE02D4B996A2E4A03
:103710000A40A16AE06A41EA00110A439A62226BF8
:10372000013AC2F30802616B0139490289B20A43C6
:10373000A16B0139090401F4FE010A43E16B01396F
:10374000090601F0FE410A431A63DA6A22F0010217
:10375000DA62596B1D4A0A40A16C42EAC1025A63FF
:10376000DA6A22F00C02216C0A43DA62DA6A22F089
:103770000202616C0A43DA62DA6A42F48032DA6287
:10378000DA6A42F40032DA62DA6A42F48022DA62F9
:10379000DA6A42F00102DA621A6842F080721A6054
:1037A000FCF7D6FF0446064B1B6813F0007F0FD1D1
:1037B000FCF7CEFF001B0228F5D9032013E000BF61
:1037C00000440258004802580CFCFFFF0700FFFFAE
:1037D000002008E0002006E001207047012002E000
:1037E000012000E0002038BD0120FCE7724B1B697E
:1037F00003F03803102B00F0DB80182B10D00BB136
:103800006E4870476C4B1B6813F0200F00F0D2809D
:10381000694B1868C0F3C100694B23FA00F0704788
:10382000654A916A01F00301906AC0F30510D36AFA
:1038300003F00103526BC2F3CC0203FB02F307EE69
:10384000903AF8EE677A002800F0B580012966D03A
:10385000F9B1022900F08F8007EE100AF8EE476AEE
:103860009FED586A86EE267A534B1B6BC3F3080311
:1038700006EE903AF8EE666A9FED536A67EE867A36
:1038800076EEA77AF7EE006A77EEA67A27EE277A29
:1038900061E0494B1B6813F0200F23D046490A68AA
:1038A000C2F3C102464BD34007EE103AF8EE476A26
:1038B00007EE100AB8EE476A86EE867A0B6BC3F302
:1038C000080306EE903AF8EE666A9FED3F6A67EEEF
:1038D000867A76EEA77AF7EE006A77EEA67A27EE7A
:1038E000277A38E007EE100AF8EE476A9FED376A4C
:1038F00086EE267A304B1B6BC3F3080306EE903A34
:10390000F8EE666A9FED306A67EE867A76EEA77A01
:10391000F7EE006A77EEA67A27EE277A1BE007EE2D
:10392000100AF8EE476A9FED276A86EE267A224B48
:103930001B6BC3F3080306EE903AF8EE666A9FED40
:10394000226A67EE867A76EEA77AF7EE006A77EE5D
:10395000A67A27EE277A184B1B6BC3F34623013355
:1039600007EE903AF8EE677AC7EE276AFCEEE67A41
:1039700017EE900A704707EE100AF8EE476A9FEDBF
:10398000146A86EE267A0C4B1B6BC3F3080306EE13
:10399000903AF8EE666A9FED0C6A67EE867A76EEEC
:1039A000A77AF7EE006A77EEA67A27EE277AD2E7B3
:1039B00008487047024870470044025800093D001B
:1039C0000090D0030024744A000000390024744C95
:1039D0000024F44A00127A00002800F02B810346EC
:1039E000964A126802F00F028A420CD2934802688B
:1039F00022F00F020A430260026802F00F028A42BC
:103A000001D00120704770B51A6812F0040F0CD075
:103A100018698B4A926902F07002904205D9884C6D
:103A2000A26922F070021043A0611A6812F0080F18
:103A30000CD05869824AD26902F07002904205D9CE
:103A40007F4CE26922F070021043E0611A6812F0C4
:103A5000100F0CD098697A4AD26902F4E062904261
:103A600005D9774CE26922F4E0621043E0611A68FC
:103A700012F0200F0CD0D869714A126A02F070025D
:103A8000904205D96E4C226A22F0700210432062E7
:103A90001A6812F0020F0CD0D868694A926902F0D5
:103AA0000F02904205D9664CA26922F00F02104322
:103AB000A0611C460D461B6813F0010F41D0604AFF
:103AC000936923F47063A1680B4393616368022BCD
:103AD0000AD0032B27D0012B2CD0594A126812F0A0
:103AE000040F06D10120A4E0126812F4003F00F098
:103AF000A38053490A6922F0070213430B61FCF7C4
:103B000027FE06464E4B1B6903F038036268B3EB91
:103B1000C20F16D0FCF71CFE801B41F2883398427E
:103B2000F0D9032085E0464A126812F0007FE0D108
:103B300001207EE0424A126812F4807FD9D1012030
:103B400077E0236813F0020F0CD0E2683C4B9B69CE
:103B500003F00F039A4205D239498B6923F00F0312
:103B60001A438A61354B1B6803F00F03AB420CD933
:103B7000324A136823F00F032B431360136803F0DA
:103B80000F03AB4201D0012053E0236813F0040F70
:103B90000CD022692A4B9B6903F070039A4205D22C
:103BA00027498B6923F070031A438A61236813F055
:103BB000080F0CD06269224BDB6903F070039A4254
:103BC00005D21F49CB6923F070031A43CA612368E9
:103BD00013F0100F0CD0A269194BDB6903F4E063FA
:103BE0009A4205D21649CB6923F4E0631A43CA61AD
:103BF000236813F0200F0CD0E269114B1B6A03F00D
:103C000070039A4205D20E490B6A23F070031A43DF
:103C10000A62FFF7EBFD0A4B9B69C3F30323094AD2
:103C2000D35C03F01F03D840074B18600020FCF75B
:103C30002FFD70BD012070470120FAE700200052DF
:103C40000044025828A200080800002008B501F02E
:103C500055FA064B9B6903F00F03054AD35C03F04A
:103C60001F03D840034B186008BD00BF0044025832
:103C700028A200080C00002008B5FFF7E7FF054B5D
:103C8000DB69C3F30213044AD35C03F01F03D8407B
:103C900008BD00BF0044025828A2000808B5FFF77D
:103CA000D5FF054BDB69C3F30223044AD35C03F061
:103CB0001F03D84008BD00BF0044025828A20008D6
:103CC000404B9B6A03F00303032B79D070B50E467B
:103CD00004463C4A136823F080631360FCF738FD08
:103CE0000546384B1B6813F0006F06D0FCF730FD1B
:103CF000401B0228F5D9032070BD324B9A6A22F48A
:103D00007C32216842EA01329A626268013AC2F367
:103D10000802A1680139490289B20A43E168013900
:103D2000090401F4FE010A4321690139090601F081
:103D3000FE410A439A63DA6A22F0C00261690A43CB
:103D4000DA62DA6A22F02002A1690A43DA62DA6AE8
:103D500022F01002DA62D96B1B4A0A40E16942EA9A
:103D6000C102DA63DA6A42F01002DA62C6B91A46B0
:103D7000DB6A43F40023D362124A136843F0806382
:103D80001360FCF7E5FC04460E4B1B6813F0006F54
:103D900014D1FCF7DDFC001B0228F5D90320ABE7AA
:103DA000012E05D0074AD36A43F40013D362E3E738
:103DB000044AD36A43F48013D362DDE700209BE713
:103DC00001207047004402580700FFFF404B9B6AE8
:103DD00003F00303032B79D070B50E4604463C4A2A
:103DE000136823F080531360FCF7B2FC0546384B90
:103DF0001B6813F0005F06D0FCF7AAFC401B0228EA
:103E0000F5D9032070BD324B9A6A22F07C7221688A
:103E100042EA01529A626268013AC2F30802A1685A
:103E20000139490289B20A43E1680139090401F400
:103E3000FE010A4321690139090601F0FE410A43E6
:103E40001A64DA6A22F4406261690A43DA62DA6A61
:103E500022F40072A1690A43DA62DA6A22F48072FB
:103E6000DA62596C1B4A0A40E16942EAC1025A64AB
:103E7000DA6A42F48072DA62C6B91A46DB6A43F43F
:103E80008003D362124A136843F080531360FCF737
:103E90005FFC04460E4B1B6813F0005F14D1FCF767
:103EA00057FC001B0228F5D90320ABE7012E05D0F3
:103EB000074AD36A43F08073D362E3E7044AD36AC4
:103EC00043F40003D362DDE700209BE70120704745
:103ED000004402580700FFFFF8B50446036813F0DA
:103EE000006F2BD0436EB3F5801F18D007D9B3F500
:103EF000001F1DD0B3F5401F2ED1002506E05BBB8F
:103F0000934AD36A43F40033D3620025904A136D79
:103F100023F44013616E0B431365002610E0022169
:103F20000430FFF7CDFE0546002DEFD02E4607E00A
:103F300002212430FFF74AFF0546F5E70026354603
:103F4000236813F4807F17D0636D042B32D8DFE829
:103F500003F006242A0B0B0001263546F0E77C4AC5
:103F6000D36A43F40033D3623DBB794A136D23F027
:103F70000703616D0B431365236813F4007F33D08F
:103F8000A36D802B44D01AD80BB3402B1CD1002139
:103F9000201DFFF795FE05461EE00021201DFFF7BE
:103FA0008FFE0546E0E7002104F12400FFF70EFF35
:103FB0000546D9E701263546DEE72E46DCE7C02B6D
:103FC0000AD0B3F5807F07D0012635460CE0604A61
:103FD000D36A43F40033D3620DBB5D4A136D23F4FF
:103FE000E073A16D0B431365236813F4806F2FD02A
:103FF000D4F8A430B3F5800F3ED012D8D3B1B3F5C6
:10400000001F14D10021201DFFF75AFE054616E0BF
:10401000002104F12400FFF7D9FE0546DCE72E4617
:10402000E2E7B3F5C00F0AD0B3F5000F07D00126C1
:1040300035460DE0464AD36A43F40033D36215BBDC
:10404000434A936D23F46003D4F8A4100B439365A3
:10405000236813F4006F2FD0D4F8A830B3F1007F99
:1040600037D012D8D3B1B3F1807F14D10021201DF5
:10407000FFF726FE054616E0002104F12400FFF7B5
:10408000A5FE0546DBE72E46E2E7B3F1407F0AD006
:10409000B3F1806F07D0012635460DE02C4AD36A74
:1040A00043F40033D362DDB9294A936D23F0E06312
:1040B000D4F8A8100B439365236813F0007F2AD02F
:1040C000A36C102B12D00DD9202B1DD0302B12D069
:1040D00009E0002104F12400FFF778FE0546E2E73D
:1040E0002E46E9E73BB10126354614E0184AD36A6B
:1040F00043F40033D3626DB9154AD36C23F0300317
:10410000A16C0B43D36406E00221201DFFF7D8FD0C
:104110000546F0E72E46236813F4805F27D0E36D51
:10412000B3F5005F3ED009D8A3B1B3F5805F0BD1E2
:104130000021201DFFF7C4FD054610E0B3F5405FE8
:104140000DD0B3F5804F0AD0012635460FE000BFF1
:1041500000440258934AD36A43F40033D36245BB08
:10416000904A136D23F4E043E16D0B43136523681C
:1041700013F4005F33D0236EB3F5003F27D01AD875
:104180003BB1B3F5803F1FD10121201DFFF798FD02
:1041900005461DBB834A136D23F4E023216E0B43B8
:1041A00013651CE0002104F12400FFF70FFE054613
:1041B000D5E72E46DBE7B3F5802FEAD0B3F5A02F85
:1041C000E7D0B3F5403FE4D00126354607E00121B2
:1041D00004F12400FFF7FAFD0546DAE72E462368CE
:1041E00013F4804F2CD0D4F8AC30B3F1005F1FD063
:1041F00012D83BB1B3F1805F17D10121201DFFF729
:104200005FFD0546DDB9674A936D23F0E043D4F8BE
:10421000AC100B43936513E0B3F1804FF2D0B3F1D0
:10422000A04FEFD0B3F1405FECD00126354607E058
:10423000012104F12400FFF7C9FD0546E2E72E46FF
:10424000236813F4004F1FD0E36EB3F1805F06D0F4
:10425000B3F1005F11D03BB10126354614E0514A5D
:10426000D36A43F40033D3626DB94E4A136D23F021
:104270004053E16E0B43136506E00121201DFFF75B
:104280001FFD0546F0E72E46236813F0807F1ED001
:10429000636C032B17D8DFE803F007021007414ACD
:1042A000D36A43F40033D36285B93E4AD36C23F01A
:1042B0000303616C0B43D36409E00221201DFFF767
:1042C000FFFC0546F0E70126354600E02E46236850
:1042D00013F4800F1FD1236813F0010F00F09E80AC
:1042E000A36F282B00F29680DFE803F08494949467
:1042F000949494947F949494949494948D9494949A
:10430000949494948494949494949494849494948D
:10431000949494948400244A136843F48073136043
:10432000FCF716FA0746204B1B6813F4807F05D173
:10433000FCF70EFAC01B6428F5D90325002D50D1D7
:10434000184B1B6FD4F8B020534013F4407F0CD0AF
:10435000144B1A6F22F44072196F41F480311967BF
:10436000196F21F4803119671A67D4F8B030B3F5AA
:10437000807F1BD0002D36D1D4F8B03003F44072CA
:10438000B2F5407F23D0074A136923F47C531361AD
:1043900004490B6FD4F8B020C2F30B0213430B6730
:1043A00099E700BF0044025800480258FCF7D0F9D2
:1043B0000746AA4B1B6F13F0020FDBD1FCF7C8F9BD
:1043C000C01B41F288339842F3D90325D2E7A348B2
:1043D000026922F47C52A24901EA131313430361D8
:1043E000D6E72E4677E72E4675E70121201DFFF719
:1043F00067FC05468DB9994A536D23F03803A16FC8
:104400000B4353650AE0012104F12400FFF7DEFCB1
:104410000546EFE70126354600E02E46236813F0F7
:10442000020F20D0636F052B19D8DFE803F00803D3
:10443000110808080121201DFFF742FC05468DB92F
:10444000864A536D23F00703616F0B4353650AE0FF
:10445000012104F12400FFF7B9FC0546EFE701262E
:10446000354600E02E46236813F0040F22D0D4F81E
:104470009030052B1AD8DFE803F00803120808086B
:104480000121201DFFF71CFC054695B9734A936D69
:1044900023F00703D4F890100B4393650AE0012141
:1044A00004F12400FFF792FC0546EEE701263546AD
:1044B00000E02E46236813F0200F2CD0D4F88C3067
:1044C000B3F1005F1FD012D83BB1B3F1805F17D1B9
:1044D0000021201DFFF7F4FB0546DDB95F4A536D4F
:1044E00023F0E043D4F88C100B43536513E0B3F191
:1044F000804FF2D0B3F1A04FEFD0B3F1405FECD0DA
:104500000126354607E0022104F12400FFF75EFC96
:104510000546E2E72E46236813F0400F2CD0D4F86E
:104520009830B3F5006F1FD012D83BB1B3F5806F50
:1045300017D10021201DFFF7C3FB0546DDB9474A0F
:10454000936D23F4E053D4F898100B43936513E074
:10455000B3F5805FF2D0B3F5A05FEFD0B3F5406F55
:10456000ECD00126354607E0022104F12400FFF7D4
:104570002DFC0546E2E72E46236813F0800F2CD071
:10458000D4F89C30B3F5804F1FD012D83BB1B3F5AF
:10459000005F17D10021201DFFF792FB0546DDB912
:1045A0002E4A936D23F46043D4F89C100B4393651B
:1045B00013E0B3F5004FF2D0B3F5204FEFD0B3F5D1
:1045C000C04FECD00126354607E0022104F124005B
:1045D000FFF7FCFB0546E2E72E46236813F0080FC1
:1045E0000AD0D4F88030B3F5805F24D01B494A6DDF
:1045F00022F4405213434B65236813F0100F0AD086
:10460000D4F89430B3F5807F1ED014498A6D22F41B
:10461000407213438B65236813F4002F39D0D4F80C
:10462000A030B3F5803F2CD0B3F5003F1FD0CBB105
:10463000012635462DE0022104F12400FFF7C6FBD8
:104640000028D9D00126D7E7022104F12400FFF782
:10465000BDFB0028DFD00126DDE700BF0044025883
:10466000CFFFFF000021201DFFF72AFB05467DB983
:10467000644A936D23F44033D4F8A0100B43936540
:1046800007E0022104F12400FFF7A0FB0546EEE756
:104690002E46236813F4802F24D0D4F88430B3F549
:1046A000001F17D0B3F5401F0AD0B3F5801F02D00A
:1046B0000126354616E0534AD36A43F40033D362E9
:1046C0007DB9504A536D23F44013D4F884100B4342
:1046D000536507E0012104F12400FFF777FB05464D
:1046E000EEE72E46236813F4803F14D0E36C2BB121
:1046F000B3F5803F23D0012635460CE0414AD36A0A
:1047000043F40033D36205BB3E4AD36C23F48033B9
:10471000E16C0B43D364236813F0005F17D1236867
:1047200013F4003F2DD0E36FB3F5807F1BD017D972
:10473000B3F5007F1CD0B3F5407F12D118E0022101
:10474000201DFFF7BDFA0546DDE72E46E3E702210F
:1047500004F12400FFF73AFB0028E0D00126DEE751
:1047600033B101260DE0274AD36A43F40033D36204
:10477000002D3DD1234A536D23F44073E16F0B4369
:104780005365236813F4801F06D01E4A136D23F06F
:104790000043216F0B431365236813F0805F07D03C
:1047A000184A136923F48043D4F8B4100B431361FF
:1047B000236813F4001F06D0124A136D23F0807390
:1047C000A16E0B431365236813F0804F09D00D4B86
:1047D0001A6922F400421A611A69D4F8B8100A431F
:1047E0001A612368002B05DB06B101263046F8BDAF
:1047F0002E46C6E7034AD36C23F04053216D0B438A
:10480000D364F1E70044025808B5FFF71FFA054BDF
:104810001B6AC3F30213044AD35C03F01F03D8409E
:1048200008BD00BF0044025828A2000810B478490F
:104830008C6A8A6AC2F30532CB6A03F01003C96B33
:10484000C1F3CC0103FB01F3002A00F0DB8004F08C
:10485000030407EE903AF8EE677A012C66D0FCB1BB
:10486000022C00F0B28007EE102AB8EE477A9FEDD6
:10487000696AC6EE076A664B9B6BC3F3080307EED3
:10488000103AB8EE477A9FED646A67EE867A77EE63
:10489000277AB7EE007A77EE877A66EEA76A61E04C
:1048A0005B4B1B6813F0200F23D0594C2168C1F3D8
:1048B000C1015A4BCB4007EE103AB8EE477A06EEEC
:1048C000902AB8EE666AC7EE066AA36BC3F30803C4
:1048D00007EE103AB8EE477A9FED4F6A67EE867A98
:1048E00077EE277AB7EE007A77EE877A66EEA76AD8
:1048F00038E007EE102AB8EE477A9FED496AC6EE17
:10490000076A434B9B6BC3F3080307EE103AB8EEFC
:10491000477A9FED416A67EE867A77EE277AB7EE9F
:10492000007A77EE877A66EEA76A1BE007EE102A18
:10493000B8EE477A9FED376AC6EE076A344B9B6B39
:10494000C3F3080307EE103AB8EE477A9FED326AD8
:1049500067EE867A77EE277AB7EE007A77EE877A77
:1049600066EEA76A2A4A936BC3F3462307EE103A12
:10497000B8EE477AB7EE006A37EE067AC6EE877A67
:10498000FCEEE77AC0ED007A936BC3F3064307EEC3
:10499000103AB8EE477A37EE067AC6EE877AFCEE22
:1049A000E77AC0ED017A936BC3F3066307EE903AA2
:1049B000F8EE677A77EE867A86EEA77ABCEEC77A4B
:1049C00080ED027A5DF8044B704707EE102AB8EECE
:1049D000477A9FED146AC6EE076A0D4B9B6BC3F3D3
:1049E000080307EE103AB8EE477A9FED0B6A67EEC0
:1049F000867A77EE277AB7EE007A77EE877A66EED8
:104A0000A76AAFE70023036043608360DAE700BF73
:104A1000004402580024744A000000390090D0037A
:104A20000024744C0024F44A10B478498C6A8A6AD1
:104A3000C2F30552CB6A03F48073496CC1F3CC0115
:104A400003FB01F3002A00F0DB8004F0030407EE0F
:104A5000903AF8EE677A012C66D0FCB1022C00F097
:104A6000B28007EE102AB8EE477A9FED696AC6EE6B
:104A7000076A664B1B6CC3F3080307EE103AB8EEE7
:104A8000477A9FED646A67EE867A77EE277AB7EE0B
:104A9000007A77EE877A66EEA76A61E05B4B1B6867
:104AA00013F0200F23D0594C2168C1F3C1015A4B98
:104AB000CB4007EE103AB8EE477A06EE902AB8EEF1
:104AC000666AC7EE066A236CC3F3080307EE103A62
:104AD000B8EE477A9FED4F6A67EE867A77EE277ACF
:104AE000B7EE007A77EE877A66EEA76A38E007EECF
:104AF000102AB8EE477A9FED496AC6EE076A434B23
:104B00001B6CC3F3080307EE103AB8EE477A9FED2B
:104B1000416A67EE867A77EE277AB7EE007A77EE0B
:104B2000877A66EEA76A1BE007EE102AB8EE477A8E
:104B30009FED376AC6EE076A344B1B6CC3F308035C
:104B400007EE103AB8EE477A9FED326A67EE867A42
:104B500077EE277AB7EE007A77EE877A66EEA76A65
:104B60002A4A136CC3F3462307EE103AB8EE477A8D
:104B7000B7EE006A37EE067AC6EE877AFCEEE77A81
:104B8000C0ED007A136CC3F3064307EE103AB8EE9B
:104B9000477A37EE067AC6EE877AFCEEE77AC0ED02
:104BA000017A136CC3F3066307EE903AF8EE677A66
:104BB00077EE867A86EEA77ABCEEC77A80ED027A27
:104BC0005DF8044B704707EE102AB8EE477A9FED68
:104BD000146AC6EE076A0D4B1B6CC3F3080307EE9D
:104BE000103AB8EE477A9FED0B6A67EE867A77EE59
:104BF000277AB7EE007A77EE877A66EEA76AAFE794
:104C00000023036043608360DAE700BF004402587A
:104C10000024744A000000390090D0030024744C32
:104C20000024F44A10B478498C6A8A6AC2F30512E7
:104C3000CB6A03F00103496BC1F3CC0103FB01F321
:104C4000002A00F0DB8004F0030407EE903AF8EE4F
:104C5000677A012C66D0FCB1022C00F0B28007EE1E
:104C6000102AB8EE477A9FED696AC6EE076A664B6E
:104C70001B6BC3F3080307EE103AB8EE477A9FEDBB
:104C8000646A67EE867A77EE277AB7EE007A77EE77
:104C9000877A66EEA76A61E05B4B1B6813F0200F12
:104CA00023D0594C2168C1F3C1015A4BCB4007EEC8
:104CB000103AB8EE477A06EE902AB8EE666AC7EE6A
:104CC000066A236BC3F3080307EE103AB8EE477A7F
:104CD0009FED4F6A67EE867A77EE277AB7EE007A15
:104CE00077EE877A66EEA76A38E007EE102AB8EE0C
:104CF000477A9FED496AC6EE076A434B1B6BC3F3C5
:104D0000080307EE103AB8EE477A9FED416A67EE66
:104D1000867A77EE277AB7EE007A77EE877A66EEB4
:104D2000A76A1BE007EE102AB8EE477A9FED376AB4
:104D3000C6EE076A344B1B6BC3F3080307EE103A49
:104D4000B8EE477A9FED326A67EE867A77EE277A79
:104D5000B7EE007A77EE877A66EEA76A2A4A136B77
:104D6000C3F3462307EE103AB8EE477AB7EE006A6F
:104D700037EE067AC6EE877AFCEEE77AC0ED007A67
:104D8000136BC3F3064307EE103AB8EE477A37EEDB
:104D9000067AC6EE877AFCEEE77AC0ED017A136BED
:104DA000C3F3066307EE903AF8EE677A77EE867AF9
:104DB00086EEA77ABCEEC77A80ED027A5DF8044BE6
:104DC000704707EE102AB8EE477A9FED146AC6EED8
:104DD000076A0D4B1B6BC3F3080307EE103AB8EEDE
:104DE000477A9FED0B6A67EE867A77EE277AB7EE01
:104DF000007A77EE877A66EEA76AAFE70023036052
:104E000043608360DAE700BF004402580024744A1C
:104E1000000000390090D0030024744C0024F44AB0
:104E200000B58BB0B0F5807F15D0B0F5007F40D0D5
:104E3000B0F5806F70D0B0F5006F00F0A380B0F5D2
:104E4000805F00F0D580B0F5002F00F003810020D6
:104E50000BB05DF804FBA24B1B6D03F00703042BA2
:104E600000F21E81DFE803F0050A0F0314009D48DD
:104E7000EEE707A8FFF7D6FE0898E9E704A8FFF7D2
:104E8000D5FC0498E4E701A8FFF7CEFD0198DFE721
:104E9000934BDB6C13F0405300F00481B3F1805F5F
:104EA00000F00281B3F1005F01D00020D0E78E480E
:104EB000CEE78B4B1B6D03F4E073802B25D008D815
:104EC000F3B1402B40F0F28004A8FFF7AFFC049848
:104ED000BEE7C02B12D0B3F5807F40F0E780804B57
:104EE000DB6C13F0405300F0E380B3F1805F00F01F
:104EF000E180B3F1005F0DD00020A9E77948A7E772
:104F000007A8FFF78FFE0898A2E701A8FFF78CFD1E
:104F100001989DE774489BE7714B9B6D03F4600318
:104F2000B3F5800F27D009D803B3B3F5001F40F0C5
:104F3000C38004A8FFF77AFC049889E7B3F5C00F93
:104F400012D0B3F5000F40F0B780654BDB6C13F067
:104F5000405300F0B380B3F1805F00F0B180B3F153
:104F6000005F0DD0002073E75E4871E707A8FFF7E8
:104F700059FE08986CE701A8FFF756FD019867E70E
:104F8000594865E7564B9B6D03F0E063B3F1007F32
:104F900027D009D803B3B3F1807F40F0938004A8F1
:104FA000FFF744FC049853E7B3F1407F12D0B3F10C
:104FB000806F40F087804A4BDB6C13F0405300F069
:104FC0008380B3F1805F00F08180B3F1005F0DD08A
:104FD00000203DE743483BE707A8FFF723FE08987A
:104FE00036E701A8FFF720FD019831E73E482FE79B
:104FF0003B4B1B6D03F4E043B3F5005F23D008D8AF
:10500000E3B1B3F5805F63D104A8FFF70FFC049808
:105010001EE7B3F5405F0FD0B3F5804F58D1304B4A
:10502000DB6C13F0405355D0B3F1805F54D0B3F133
:10503000005F0DD000200BE72A4809E707A8FFF71B
:10504000F1FD089804E701A8FFF7EEFC0198FFE6E0
:105050002548FDE6224B9B6D03F44033B3F5803FBA
:105060000AD0B3F5003F0CD00BB10020F0E604A845
:10507000FFF7DCFB0498EBE601A8FFF7D5FC0398EB
:10508000E6E6174BDB6C13F0405327D0B3F1805F9B
:1050900030D0B3F1005F01D00020D9E61248D7E646
:1050A0000020D5E61148D3E61148D1E60020CFE62E
:1050B0000E48CDE60E48CBE60020C9E60B48C7E611
:1050C0000B48C5E60020C3E60848C1E60848BFE62D
:1050D0000020BDE60548BBE60548B9E60348B7E64B
:1050E000004402580080BB0000127A000090D003F8
:1050F00000093D000048ABE600093D0008B5FEF799
:1051000075FB064B9B69C3F30323054AD35C03F08D
:105110001F03D840034B186008BD00BF004402586D
:1051200028A20008080000200268D36843F00103A9
:10513000D36002689168064B0B40062B18BFB3F58D
:10514000803F03D0136843F00103136000207047D1
:1051500007000100704770477047704710B504465C
:1051600003681A6912F0020F11D0DA6812F0020F08
:105170000DD06FF002021A610123037703689B6967
:1051800013F0030F79D0FFF7E6FF0023237723689E
:105190001A6912F0040F12D0DA6812F0040F0ED060
:1051A0006FF004021A610223237723689B6913F4CA
:1051B000407F68D02046FFF7CEFF00232377236887
:1051C0001A6912F0080F12D0DA6812F0080F0ED028
:1051D0006FF008021A61042323772368DB6913F058
:1051E000030F57D02046FFF7B6FF0023237723682D
:1051F0001A6912F0100F12D0DA6812F0100F0ED0E8
:105200006FF010021A61082323772368DB6913F417
:10521000407F46D02046FFF79EFF00232377236878
:105220001A6912F0010F03D0DA6812F0010F3FD1B2
:1052300023681A6912F0800F03D0DA6812F0800F29
:105240003DD123681A6912F4807F03D0DA6812F026
:10525000800F3BD123681A6912F0400F03D0DA683F
:1052600012F0400F39D123681A6912F0200F03D0D1
:10527000DA6812F0200F37D110BDFFF76BFF204620
:10528000FFF76AFF81E72046FFF764FF2046FFF73C
:1052900063FF92E72046FFF75DFF2046FFF75CFFC4
:1052A000A3E72046FFF756FF2046FFF755FFB4E778
:1052B0006FF001021A61204602F0B2FCB8E76FF00D
:1052C00080021A61204600F0E4F8BAE76FF48072B9
:1052D0001A61204600F0DEF8BCE76FF040021A6168
:1052E0002046FFF73AFFBEE76FF020021A61204622
:1052F00000F0CEF8C0E7000070B40368374CA0425D
:1053000014BF00240124B0F1804F14BF224644F0A2
:105310000102AAB9324DA84214BF00250125314E21
:10532000B0420DD065B905F1804505F58235A8423A
:1053300014BF0025012506F50066B04200D01DB15E
:1053400023F070034D682B4312BB254A904214BFD3
:1053500000220122234DA8421AD0CAB902F180428C
:1053600002F58232904214BF0022012205F5006549
:10537000A8420DD062B91C4A904214BF00220122FB
:1053800005F59A35A84203D012B9184A904203D1C4
:1053900023F44073CA68134323F080034A6913431C
:1053A00003608A68C2620A688262114B984214BF25
:1053B000234644F001035BB90B4B984214BF002312
:1053C00001230C4A904203D013B9084B984201D1F3
:1053D0000B6903630123436170BC70470000014007
:1053E0000008004000040040004401400048014023
:1053F0000004014000400140A8B110B5044690F8F7
:105400003D305BB1022384F83D30211D2068FFF759
:1054100073FF012384F83D30002010BD80F83C303C
:1054200002F0A4FDEEE701207047000090F83C3048
:10543000012B27D070B4012380F83C30022380F880
:105440003D3003685A689D680F4E104CA34218BF48
:10545000B34203D122F470024C68224322F070025E
:105460000C68224325F08004896821435A60036850
:105470009960012380F83D30002380F83C301846C5
:1054800070BC7047022070470000014000040140DA
:105490007047704770470268136823F0C0031360B9
:1054A0000268936823F4000393602023C0F88030DF
:1054B000704700000268136823F490731360026859
:1054C0009168044B0B4093602023C0F88430002384
:1054D000C3667047FEFFFFEF38B5D0F88040202C40
:1054E00046D1B2FA82F56D09002908BF0125002DC9
:1054F00040D190F87C30012B3ED013460446012267
:1055000080F87C200165A0F85430A0F856300022C5
:10551000C0F888202122C0F88020426F8AB1174944
:10552000D163426F16491164426F1649D164426FCC
:105530000021116502682832016D406FFCF760FCA4
:1055400058B9236840221A62002084F87C0022683F
:10555000936843F0800393600BE01023C4F8883015
:10556000002384F87C302023C4F88030012000E040
:10557000022038BD0120FCE70220FAE7455600086A
:1055800093560008E956000838B5D0F88440202C1E
:105590004BD1B2FA82F56D09002908BF0125002D13
:1055A00045D190F87C30012B43D0134604460122AC
:1055B00080F87C208165A0F85C300022C0F888204B
:1055C0002222C0F88420826F8AB11B49D163826F86
:1055D0001A491164826F1A49D164826F00211165E2
:1055E0000168826D2431806FFCF70AFC90B90020BD
:1055F00084F87C002268136843F480731360226887
:10560000936843F0010393602268936843F040037A
:1056100093600BE01023C4F88830002384F87C30BA
:105620002023C4F88030012000E0022038BD012092
:10563000FCE70220FAE700BF9D560008DD5600088F
:10564000E956000808B5836BC269B2F5807F0DD0BA
:105650000022A3F8562019688A6822F080028A6026
:105660001A68136843F04003136008BD184602F03F
:10567000A7FBFAE708B501680A6822F040020A6051
:105680002022C0F880200022026702F099FB08BDAA
:10569000704708B5806BFFF7FBFF08BD08B5836B4B
:1056A000C269B2F5807F14D00022A3F85E20196889
:1056B0000A6822F480720A6019688A6822F001027E
:1056C0008A6019688A6822F040028A602022C3F842
:1056D0008420184602F018FB08BD704708B5806B9F
:1056E000FFF7FBFF08BD704738B5846BD4F8802006
:1056F000D4F8845023689B6813F0800F01D0212ACE
:1057000010D023689B6813F0400F01D0222D10D0D9
:10571000D4F8883043F01003C4F888302046FFF7EF
:10572000E2FF38BD0023A4F856302046FFF7B3FE51
:10573000E7E70023A4F85E302046FFF7BBFEE7E76B
:1057400070B504460268D3691068916813F00F05BC
:105750000DD113F0200F0AD010F0200F02D111F05C
:10576000805F04D0E36E0BB12046984770BD002DDA
:1057700000F083805F4D0D4002D110F4907F7CD00B
:1057800013F0010F09D010F4807F06D001261662B5
:10579000D4F888203243C4F8882013F0020F0BD0CD
:1057A00011F0010F08D0226802261662D4F8882072
:1057B00042F00402C4F8882013F0040F0BD011F05B
:1057C000010F08D0226804261662D4F8882042F01F
:1057D0000202C4F8882013F0080F0BD010F0200F3D
:1057E00000D13DB1226808251562D4F888202A43EB
:1057F000C4F88820D4F88820002AB7D013F0200FEE
:1058000009D010F0200F02D111F0805F03D0E36EB9
:105810000BB120469847D4F8882023689B6813F082
:10582000400F02D112F0080F20D02046FFF742FEB1
:1058300023689A6812F0400F14D09A6822F0400250
:105840009A60A36F53B12C4A1A65A06FFCF7D8FB7E
:1058500000288BD0A06F036D984787E72046FFF79D
:1058600042FF83E72046FFF73EFF7FE72046FFF732
:105870003AFF0023C4F8883078E713F4801F02D081
:1058800011F4800F0FD113F0800F13D010F0800FA0
:1058900002D111F4000F0DD0236F002B3FF466AF3F
:1058A0002046984762E74FF480131362204601F0C8
:1058B000E3FC5BE713F0400F02D010F0400F10D173
:1058C00013F4000F02D010F0804F0ED113F0807F40
:1058D0003FF44CAF0028BFF649AF204601F0CDFCA5
:1058E00044E72046FFF7C6FE40E7204601F0C6FC2D
:1058F0003CE700BF01000010FD58000808B5806BB0
:105900000023A0F85E30A0F85630FFF7ECFE08BD8B
:105910002DE9F04387B004460168836802691343A8
:1059200042691343C2691343426E13430868874AAE
:1059300002401A430A602268536823F44053E16826
:105940000B435360A1692268814B9A4201D0236ABC
:10595000194390687F4B03400B4393602268D36ADE
:1059600023F00F03616A0B43D36223687A4A9342A0
:105970001FD07A4A934259D0794A934270D0794ADB
:10598000934200F08780784A934200F09D80774AE6
:10599000934200F0B380764A934200F0F180754A5A
:1059A000934200F004816A4A934200F017818025F7
:1059B0002DE1714A526D02F03802282A34D8DFE80E
:1059C00012F029003300330033003300330033007A
:1059D000330025013300330033003300330033003C
:1059E00033002B0033003300330033003300330027
:1059F00033002D0033003300330033003300330015
:105A000033002F0033003300330033003300330002
:105A1000330031000125FAE00825F8E01025F6E012
:105A20002025F4E04025F2E08025F0E0524A526D56
:105A300002F00702052A11D8DFE812F0060037014C
:105A400008000A000C000E000025E0E00825DEE05A
:105A50001025DCE02025DAE04025D8E08025D6E0DE
:105A6000454A526D02F00702052A11D8DFE812F00C
:105A700006001F0108000A000C000E000025C6E009
:105A80000825C4E01025C2E02025C0E04025BEE086
:105A90008025BCE0384A526D02F00702052A11D871
:105AA000DFE812F00600070108000A000C000E00F3
:105AB0000025ACE00825AAE01025A8E02025A6E0F6
:105AC0004025A4E08025A2E02B4A526D02F0070297
:105AD000052A11D8DFE812F00600EF0008000A00DE
